:100000000C9407010C942F010C942F010C942F01D8
:100010000C942F010C942F010C942F010C942F01A0
:100020000C942F010C942F010C942B060C94940625
:100030000C942F010C942F010C942F010C942F0180
:100040000C942F010C942F010C942F010C942F0170
:100050000C942F010C942F010C942F010C94E105AA
:100060000C942F010C94FC080C94D6080C942F01CE
:100070000C942F010C942F010C942F010C942F0140
:100080000C942F010C942F010C942F010C942F0130
:100090000C942F010C942F010C942F010C942F0120
:1000A0000C942F010C942F010C942F0100000000E0
:1000B0002300260029002C002F0000000002000968
:1000C0000F0000030401000C00000000000000000D
:1000D000000000000000000000080B000202020007
:1000E00000090400000102020000052400100105BF
:1000F00024010101042402060524060001070581EC
:100100000310004009040100020A00000007050274
:1001100002400000070583024000000403090412A6
:10012000010002EF0201409A230C8000010102034A
:100130000141646166727569740046656174686541
:100140007220333275340000000000250028002B97
:10015000002E00310000000000240027002A002D9E
:100160000030000404040404030405020202020433
:100170000302020202060606060606040402020242
:100180000404040802011040804010204080408098
:10019000080204018040201002011080102040401D
:1001A000202170692073696C656E74002062797417
:1001B00065730021706920616C6976652000216596
:1001C00072726F7220756E6B6E6F776E20636F6DDB
:1001D0006D616E642000216572726F7220626164CD
:1001E0002062617564002162617564200021706F76
:1001F0006E6720666561746865723332753420708D
:10020000692D627269646765207631002E091124B8
:100210001FBECFEFDAE0DEBFCDBF11E0A0E0B1E05E
:10022000EEE8F7E102C005900D92AC34B107D9F7C2
:1002300022E0ACE4B1E001C01D92A238B207E1F7C0
:1002400011E0C7E0D1E004C02197FE010E94A80B95
:10025000C630D107C9F70E946B090C94C50B0C94EA
:100260000000CF92DF92EF92FF926B017C0160E879
:1002700074E88EE190E0A70196010E94860B215060
:100280003109410951095695479537952795E091D0
:10029000A501F091A60182E08083211580E1380755
:1002A000A8F0E091A501F091A601108260E472E44B
:1002B0008FE090E0A70196010E94860B2150310942
:1002C000410951095695479537952795E091A10128
:1002D000F091A2013083E091A301F091A401208369
:1002E0001092AD01E091A901F091AA0186E080830E
:1002F000E091A701F091A801808180618083E09165
:10030000A701F091A801808188608083E091A70116
:10031000F091A801808180688083E091A701F0912D
:10032000A80180818F7D8083FF90EF90DF90CF9038
:10033000089590919401911103C08FEF9FEF08955C
:100340004FB7F89492E09093E9009091F200292F32
:1003500030E01216130614F421E030E0232B29F0CC
:1003600084E6809393018091F100992339F02091E4
:10037000F200211103C02BE62093E8004FBF992320
:10038000E1F290E008952FB7F89483E08093E900BC
:100390009091E800892F807295FF04C09091F2003F
:1003A00080E4891B2FBF089580918B0181110DC0BE
:1003B00082E08093870184E08093880110928A0113
:1003C0001092890181E080938B0187E891E0089584
:1003D00081508F3008F047C0E82FF0E0EE50FE4F1C
:1003E0000C94A80B0F021302010207020B02330246
:1003F0003302330216021C02200224022A023302B4
:100400002E02809180008F778093800008958091E4
:1004100080008F7DF9CF80918000877FF5CF84B5F4
:100420008F7784BD089584B58F7DFBCF8091900038
:100430008F77809390000895809190008F7DF9CF01
:1004400080919000877FF5CF8091C0008F77809357
:10045000C00008958091C0008F7DF9CF8091C200C7
:10046000877F8093C20008953FB7F89480918301FD
:1004700090918401A0918501B091860126B5A89B39
:1004800005C02F3F19F00196A11DB11D3FBFBA2F26
:10049000A92F982F8827BC01CD01620F711D811DE6
:1004A000911D43E0660F771F881F991F4A95D1F76A
:1004B0000895CF92DF92EF92FF920E9434026B0177
:1004C0007C010E9434026C197D098E099F09683EE7
:1004D000734081059105A8F3FF90EF90DF90CF90D6
:1004E000089540914E0150914F0120914C0130915F
:1004F0004D0142175307B4F49091E8009570E1F371
:100500009091E80092FD19C08093F10080914E0116
:1005100090914F0101968F739927892B19F48EEFD3
:100520008093E80080914E0190914F010196909345
:100530004F0180934E0181E0089580E00895EF928D
:10054000FF920F931F93CF93DF93F82E192FE62E70
:10055000042F81E0860F880F0E94710283E00E94C1
:100560007102CF2DD12FEC0EFD2EF11CCE15DF0523
:10057000B9F007FF13C0FE0184910E947102182F89
:1005800080E00E947102812321968111EFCFDF91DB
:10059000CF911F910F91FF90EF9008958881EDCF3B
:1005A00081E0F5CFDF92EF92FF920F931F93CF93ED
:1005B000DF93D82E8A01EB017B01E40EF51ECE15E8
:1005C000DF0559F0D7FE12C0FE0184910E9471022E
:1005D00021968111F4CF0FEF1FEFC801DF91CF916A
:1005E0001F910F91FF90EF90DF9008958881EECFDB
:1005F0000F931F93CF93DF931F92CDB7DEB782E0A7
:10060000898342E450E069ED70E080E80E94D20204
:100610000E94D401DC0112960D911C910115110567
:1006200089F0D801ED91FC910280F381E02DBE01AB
:100630006F5F7F4FC801099597FD04C0F8010085E1
:100640001185ECCF89810F90DF91CF911F910F9190
:100650000895AF92BF92CF92DF92EF92FF920F93E5
:100660001F93CF93DF936C017B018B01040F151F48
:10067000EB015E01AE18BF08C017D10759F06991B0
:10068000D601ED91FC910190F081E02DC601099514
:10069000892B79F7C501DF91CF911F910F91FF90C1
:1006A000EF90DF90CF90BF90AF900895FC01538DF5
:1006B000448D252F30E0842F90E0821B930B54173C
:1006C00010F0CF96089501970895FC01918D828DC9
:1006D000981761F0A28DAE0FBF2FB11D5D968C9162
:1006E000928D9F5F9F73928F90E008958FEF9FEFA1
:1006F0000895FC01918D828D981731F0828DE80F5D
:10070000F11D858D90E008958FEF9FEF0895FC0116
:10071000918D228D892F90E0805C9F4F821B9109E3
:100720008F739927089585E991E00E94870321E05E
:10073000892B09F420E0822F089580E090E0892B36
:1007400029F00E94930381110C9400000895FC018C
:10075000A48DA80FB92FB11DA35ABF4F2C91848D22
:1007600090E001968F739927848FA689B7892C937F
:10077000A089B1898C9182748C93938D848D981308
:1007800006C00288F389E02D80818F7D80830895E3
:10079000EF92FF920F931F93CF93DF93EC0181E0D1
:1007A000888F9B8D8C8D981319C0E889F989808179
:1007B00085FF14C09FB7F894EE89FF896083E889AC
:1007C000F9898081827480839FBF81E090E0DF910E
:1007D000CF911F910F91FF90EF900895F62E0B8D02
:1007E00010E00F5F1F4F0F731127E02E8C8D8E11BD
:1007F0000CC00FB607FCFACFE889F989808185FF24
:10080000F5CFCE010E94A703F1CFEB8DEC0FFD2FAA
:10081000F11DE35AFF4FF0829FB7F8940B8FEA89DE
:10082000FB8980818062CFCFCF93DF93EC01888DED
:100830008823B9F0AA89BB89E889F9898C9185FD5B
:1008400003C0808186FD0DC00FB607FCF7CF8C91E9
:1008500085FFF2CF808185FFEDCFCE010E94A703F7
:10086000E9CFDF91CF9108958F929F92AF92BF927F
:10087000CF92DF92EF92FF920F931F93CF93DF936C
:100880006C017B018A0180910B01882309F457C018
:1008900080919401882309F452C08091520180FF15
:1008A00005C08091E00082608093E000E801B12CF7
:1008B0008AEFA82E93E0892E2AE3922E209711F436
:1008C000BB20B9F10E94C301811106C0AA94AA20DD
:1008D000B1F10E945902F2CF8C171D0611F00CF0F5
:1008E0008C2F9FB7F8948092E9002091E80025FDB5
:1008F00002C09FBFE3CF282F30E0C21BD30BF7010C
:10090000815020F041914093F100FACFE20EF31EA6
:10091000BB2021F09092E800B12CEBCF8091E80051
:1009200085FDE7CF9092E800BB24B394209709F3AC
:10093000F3CF84E680935101101611063CF081E05C
:1009400090E0F6019383828310E000E0C801DF911C
:10095000CF911F910F91FF90EF90DF90CF90BF90BC
:10096000AF909F908F900895CF93DF931F92CDB754
:10097000DEB76983DC01ED91FC910280F381E02D0B
:1009800041E050E0BE016F5F7F4F09950F90DF910E
:10099000CF9108950F931F93CF93DF938C01D0E0F5
:1009A000C0E0F801EC0FFD1F6491662341F082E383
:1009B00092E00E94B404892B11F02196F2CFCE016F
:1009C000DF91CF911F910F91089583E08093E9000B
:1009D0008091F200882319F08AE38093E80008955B
:1009E0000E94C30190E00895FC018485958597FDE0
:1009F00005C02FEF3FEF3587248708950C949901A8
:100A0000CF93DF93EC018C859D8597FF04C00E94F6
:100A100099019D878C878C859D85DF91CF91089565
:100A2000FC018485958597FD0BC09FB7F89482E003
:100A30008093E9008091F2009FBF90E001960895B5
:100A40009FB7F89482E08093E9008091F2009FBF05
:100A500090E00895CF92DF92EF92FF920F931F9351
:100A6000CF93DF9327ECC22E20E0D22EF6018491A3
:100A70003FE8E32E31E0F32EF7010491C0E7D1E027
:100A8000FE011491112309F438C081110E94E8017C
:100A9000E12FF0E0EE0FFF1FE455FF4FA591B49159
:100AA0008C91082391E080E009F490E0092F182F41
:100AB000F6018491F701E490FE01C491CC23A1F0EA
:100AC00081110E94E801EC2FF0E0EE0FFF1FE95BBF
:100AD000FE4FA591B4918FB7F8949C91012B81F0B2
:100AE000E094E922EC928FBFDF91CF911F910F919B
:100AF000FF90EF90DF90CF90089510E000E0D8CF06
:100B0000E92AF0CFFC0101900020E9F73197AF010D
:100B1000481B590BBC0182E392E00C943404CF9340
:100B2000DF930E94CA04EC0187E391E00E948205F2
:100B30008C0F9D1FDF91CF9108958F929F92AF925E
:100B4000BF920F931F93CF93DF93CDB7DEB7A197DB
:100B50000FB6F894DEBF0FBECDBF19A2423008F425
:100B60004AE08E010F5D1F4F842E912CB12CA12CD9
:100B7000A50194010E94860BE62FB901CA01EA3053
:100B8000F4F4E05DD801EE938D01232B242B252B6B
:100B900079F790E080E0109719F0CD010E9482056E
:100BA000A1960FB6F894DEBF0FBECDBFDF91CF91F7
:100BB0001F910F91BF90AF909F908F900895E95C27
:100BC000E1CF1F920F920FB60F9211242F933F93F4
:100BD0008F939F93AF93BF9380917F0190918001FA
:100BE000A0918101B091820130917E0126E0230F16
:100BF0002D3758F50296A11DB11D20937E018093DB
:100C00007F0190938001A0938101B0938201809134
:100C1000830190918401A0918501B0918601019694
:100C2000A11DB11D8093830190938401A093850140
:100C3000B0938601BF91AF919F918F913F912F917A
:100C40000F900FBE0F901F90189529E8230F039661
:100C5000A11DB11DD2CF1F920F920FB60F9211247A
:100C60008F939F938091E1009091E100937F909307
:100C7000E10083FF0FC01092E90091E09093EB0038
:100C80001092EC0092E39093ED001092940198E0A2
:100C90009093F00082FF1CC093E09093E900909144
:100CA000F200992319F09AE39093E8009091510192
:100CB000992329F090915101915090935101909175
:100CC0009301992329F0909193019150909393016E
:100CD00084FF18C08091E2008E7E81608093E200E4
:100CE0008091E1008F7E8093E100809152018E7EA1
:100CF0008061809352019F918F910F900FBE0F9052
:100D00001F90189580FFF7CF8091E2008E7E806162
:100D10008093E2008091E1008E7E8093E1008091DB
:100D200052018E7E8160E5CF1F920F920FB60F9217
:100D30001124CF92DF92EF92FF920F931F932F9384
:100D40003F934F935F936F937F938F939F93AF9353
:100D5000BF93EF93FF93CF93DF93CDB7DEB76C973D
:100D6000DEBFCDBF1092E9008091E80083FF2FC065
:100D700089E0FE017596EE2EDF2E815029F09091CC
:100D8000F10090833196F9CF84E68093930182EF4E
:100D90008093E8008D8987FF39C09091E80090FF2B
:100DA000FCCF982F907609F033C19E894F89588DDA
:100DB0002F89F88C911131C0803861F580915301F1
:100DC0008093F1001092F1008EEF8093E8006C9612
:100DD0000FB6F894DEBF0FBECDBFDF91CF91FF916C
:100DE000EF91BF91AF919F918F917F916F915F91A3
:100DF0004F913F912F911F910F91FF90EF90DF90B6
:100E0000CF900F900FBE0F901F9018959EEF90936C
:100E1000E800C7CF1092F100D5CF913059F481117D
:100E2000D3CF4130510581F6809153018D7F80935E
:100E30005301CACF933049F48111C6CF41305105D7
:100E400019F6809153018260F2CF953041F4809180
:100E5000E80080FFFCCF20682093E300B5CF9630F8
:100E600009F0A8C00B8D1C8D22E01092E9001092B1
:100E70004F0110924E01F2122EC010924D011092AD
:100E80004C010E94F8021F8299E09983FA8291E056
:100E90009E8390EA98879AEF998720914E0130912E
:100EA0004F01275F3F4F3C832B838D831092E900D6
:100EB00010924F0110924E0110934D0100934C017E
:100EC00049E050E0BE016F5F7F4F80E00E94D20298
:100ED0000E94F80279CF10934D0100934C010E94BB
:100EE000D401DC0112960D911C910115110509F434
:100EF00057C1D801ED91FC910480F581E02D6E2D54
:100F00007D2DC8010995009709F045C1F8010085BC
:100F10001185EBCFF3E0FF120EC08F89882309F40F
:100F200040C0823061F440E86CE08AE391E00E94C6
:100F30009F02811149CF81E28093EB0048CF81303D
:100F400029F440E868E081E391E0F1CF833099F73C
:100F50000E94D401DC011296ED90FC908E010F5F8F
:100F60001F4F6801E114F10479F0D701ED91FC9174
:100F70000680F781E02DB801C7010995080F111D02
:100F8000F701E084F184EECFD8011C92F6010190C4
:100F90000020E9F73197BF016C197D0940E0C601D7
:100FA000C6CF6BE171E0FB01449150E080E80E9404
:100FB000D2020ACF973009F4BECF983021F481E0F5
:100FC0008093F10001CF993009F0FECE837009F0D3
:100FD000B2CFEDE0F1E081E031E096E32191222310
:100FE00071F08093E9003093EB00DF0111972C91B1
:100FF0002093EC009093ED008F5F873079F78EE7B8
:101000008093EA001092EA008F8980939401DCCEED
:101010008B8D9C8D1092E90010924F0110924E0121
:1010200090934D0180934C01898D81119AC08E89D6
:101030009D89913A49F4813209F07DCF47E050E033
:1010400064E071E080E0B3CF913209F074CF833275
:1010500069F48F89988DB0E0A0E0809300019093AF
:101060000101A0930201B0930301AECE8032A9F436
:101070008091E80082FFFCCF88E0E4E0F1E081505D
:1010800029F09091F10090833196F9CF84E6809316
:1010900093018BEF8093E80097CE823209F094CED3
:1010A0008F8980930B01EEEFFFE7859194918B3F41
:1010B0009C4D51F1E0E0F8E0809104019091050130
:1010C000A0910601B0910701803B9440A105B105B4
:1010D000F1F480910B0180FD1AC0EE3F8AE0F80721
:1010E00089F587E797E791838083809160008093FB
:1010F000500188E19BE00FB6F894A89580936000BA
:101100000FBE9093600060CEEEEFFAE0D5CF808105
:1011100091818737974709F057CEA8958091600055
:101120008861809360008091500180936000EE3F61
:101130002AE0F20789F08091FE0A9091FF0A9183DC
:10114000808342CE808191818737980751F29093B6
:10115000FF0A8093FE0AC5CF1092FF0A1092FE0A82
:1011600033CE0E94D401DC0112960D911C91011521
:10117000110509F4E0CED801ED91FC910190F081C8
:10118000E02D6E2D7D2DC801099581111DCEF80130
:1011900000851185ECCF181619060CF415CECBCEB0
:1011A000F1E0FF12B7CE6FE171E0FDCE1F920F921A
:1011B0000FB60F9211242F933F934F935F936F932A
:1011C0007F938F939F93AF93BF93EF93FF9385E9A3
:1011D00091E00E94A703FF91EF91BF91AF919F9182
:1011E0008F917F916F915F914F913F912F910F90D0
:1011F0000FBE0F901F9018951F920F920FB60F926F
:1012000011242F938F939F93EF93FF93E091A50168
:10121000F091A6018081E091AB01F091AC0182FDDB
:101220001BC090818091AE018F5F8F732091AF01C1
:10123000821741F0E091AE01F0E0EB56FE4F958F42
:101240008093AE01FF91EF919F918F912F910F901D
:101250000FBE0F901F9018958081F4CFE5E9F1E063
:101260001382128288EE93E0A0E0B0E0848395833D
:10127000A683B78327E131E0318320832DEC30E072
:10128000358724872CEC30E03787268728EC30E040
:10129000318B208B29EC30E0338B228B2AEC30E031
:1012A000358B248B2EEC30E0378B268B118E128EF3
:1012B000138E148EE2E3F2E013821282848395830C
:1012C000A683B78389E291E0918380838FEF9FEFBC
:1012D000958784870895789484B5826084BD84B5A9
:1012E000816084BD85B5826085BD85B5816085BD21
:1012F00080916E00816080936E00109281008091D9
:101300008100826080938100809181008160809360
:1013100081008091800081608093800080919100A5
:101320008260809391008091910081608093910010
:10133000809190008160809390008091C1008460D2
:101340008093C1008091C10082608093C100809130
:10135000C10081608093C1008091C300816080934F
:10136000C3008091C00082608093C0008091C20061
:1013700081608093C20080917A00846080937A00BB
:1013800080917A00826080937A0080917A008E7FCB
:1013900080937A0080917A00806880937A0010921E
:1013A000940110925301109252018091D7008160F4
:1013B0008093D70080EA8093D80089B58F7E89BD5D
:1013C00089B5826089BD09B400FEFDCF0E94590233
:1013D0008091D8008F7C80618093D8008091E0005C
:1013E000807F8093E0008091E1008E7E8093E10019
:1013F0008DE08093E200EFE8F1E02491E0E7F1E096
:101400008491882399F090E0880F991FFC01EB5A92
:10141000FE4FA591B491FC01E95BFE4F859194913B
:101420008FB7F894EC91E22BEC938FBF8FEF9FEF87
:1014300090933F0280933E0260E072EC81E090E086
:101440000E943101C0E0D0E0FF24F39482E392E0F7
:101450000E941005892B09F400C182E392E00E94EA
:10146000F404182F0E942A0580917D01811108C083
:1014700080917C01811104C0113211F4F0927D0140
:1014800080917D01882309F4E2C0E0917C011A304B
:1014900019F01D3009F0CFC0EE2381F0F0E0EC5AD6
:1014A000FE4F10826AE371E084E591E00E94AE0B8A
:1014B000892B49F48DEE91E00E948F0510927C01FA
:1014C00010927D01C3CF60E471E084E591E00E9459
:1014D000AE0B892B09F051C085E991E00E9487038A
:1014E000892B29F085E991E00E946503F5CF6AE038
:1014F00085E991E00E94C8038FB7F89480907F013E
:1015000090908001A0908101B09082018FBF10E087
:1015100000E02FB7F89480917F0190918001A09115
:101520008101B09182012FBF88199909AA09BB09CD
:1015300088359240A105B10568F485E991E00E94E3
:101540008703892B31F385E991E00E9465030F5FE2
:101550001F4FF3CF81EA91E00115110509F4ACCFDB
:1015600083EB91E00E94CA04B80190E080E04AE079
:101570000E949D058CEA91E09FCF46E050E065E433
:1015800071E084E591E00E94B70B892B09F04AC015
:101590008AE591E00E944A0B4B015C01DC01CB0122
:1015A000805B9440A109B10981359F47A340B105F3
:1015B000B0F585E991E00E941404E091A701F09153
:1015C000A80180818F7E8083E091A701F091A8011E
:1015D0008081877F8083E091A701F091A8018081BD
:1015E0008F778083E091A701F091A80180818F7DA2
:1015F00080838091AF018093AE01C501B4010E9448
:10160000310186EE91E00E94CA044AE0C501B401AE
:101610000E949D0587E391E00E9482054FCF86EDF1
:1016200091E04ACF8EEB91E00E94CA0484E591E0FC
:101630000E948205EFCFE73208F008CF81E08E0FDD
:1016400080937C01F0E0EC5AFE4F1083FFCE612FB7
:1016500085E991E00E94C803F9CE85E991E00E94F6
:101660008703892B61F085E991E00E946503682F6B
:1016700082E392E00E94B4040E942A05EECF2097F4
:1016800009F4E4CE0E949303882309F4DFCE0E947C
:101690000000DCCE1F93FC0199278827BC01E89449
:1016A00011911032E9F3193010F01E30C8F31B32DB
:1016B00051F01D3249F4689406C00E94710B610F0D
:1016C000711D811D911D119110531A30B0F33EF41C
:1016D00090958095709561957F4F8F4F9F4F1F918B
:1016E0000895592F482F372F262F660F771F881FF1
:1016F000991F660F771F881F991F620F731F841F22
:10170000951F660F771F881F991F0895A1E21A2E53
:10171000AA1BBB1BFD010DC0AA1FBB1FEE1FFF1F95
:10172000A217B307E407F50720F0A21BB30BE40BE5
:10173000F50B661F771F881F991F1A9469F760952C
:101740007095809590959B01AC01BD01CF010895E6
:10175000EE0FFF1F0590F491E02D0994FB01DC01D1
:101760008D91019080190110D9F3990B0895FB0117
:10177000DC014150504030F08D910190801919F4F6
:0E1780000020B9F7881B990B0895F894FFCF4D
:10178E00FFFFFFFF00E100000000000000C18081AC
:10179E0000000000000000C803290356031404874C
:1017AE00036503790300000000B4043404F004E57B
:1017BE00041005F40400050D0A002170696E67001F
:0C17CE002170693F0021626175642000F9
:00000001FF
